{
  "contractName": "ERC20Token",
  "abi": [
    {
      "constant": true,
      "inputs": [],
      "name": "totalSupply",
      "outputs": [
        {
          "name": "",
          "type": "uint256"
        }
      ],
      "payable": false,
      "stateMutability": "view",
      "type": "function"
    },
    {
      "inputs": [],
      "payable": false,
      "stateMutability": "nonpayable",
      "type": "constructor"
    }
  ],
  "bytecode": "0x608060405234801561001057600080fd5b50620f4240600081905550609e806100296000396000f300608060405260043610603f576000357c0100000000000000000000000000000000000000000000000000000000900463ffffffff16806318160ddd146044575b600080fd5b348015604f57600080fd5b506056606c565b6040518082815260200191505060405180910390f35b600054815600a165627a7a723058205522b0a95d32b462101d263037ca0cee3d57c2055eafa93d044c8e55a543fbaf0029",
  "source": "pragma solidity ^0.4.22;\n\n\ncontract ERC20Token {\n\n  uint public totalSupply;\n  \n  constructor() public {\n\n    totalSupply = 1000000;\n\n  }\n}\n",
  "sourcePath": "/home/kashish/Desktop/Ethereum/ERC20/contracts/ERC20Token.sol",
  "compiler": {
    "name": "solc",
    "version": "0.4.24+commit.e67f0147.Emscripten.clang"
  },
  "schemaVersion": "2.0.1",
  "updatedAt": "2018-09-30T14:56:18.198Z"
}